:100000000C94A9010C94F0010C94F0010C94F001F3
:100010000C94F0010C94F0010C94F0010C94F0019C
:100020000C94F0010C94F0010C949D1C0C946F1D29
:100030000C94C0170C94F0010C94F0010C94F00196
:100040000C94F0010C94F0010C94F0010C94F0016C
:100050000C94F0010C9419180C94F0010C94F0011C
:100060000C94F0010C94F0010C94F0010C94F0014C
:100070000C94F0010C94F0010C94F0010C94F0013C
:100080000C94F0010C94F0010C94F0010C94F0012C
:100090000C94F0010C94F0010C94F0010C94F0011C
:1000A0000C94F0010C94F0010C94F0010F040F0477
:1000B0003B043B04A304C104D905D905CC04650560
:1000C000760576057D067D068F068F0686068F06E9
:1000D0008F068F067D067D068B068F068F068B06A4
:1000E000DC1D031EFB1E031EFB1E4F1E721EFB1E8D
:1000F000C91ED81E165C1E001F0020002100220011
:10010000230024002500260027002D002E002A00B1
:100110002B0014001A000800150017001C0018001E
:100120000C00120013002F003000310039000400D1
:100130001600070009000A000B000D000E000F005A
:100140003300340000002800E1001D001B00060001
:10015000190005001100100036003700E50000000E
:1001600052003800E000E300E200000000002C0034
:10017000000000000000E6000151500051004F0057
:1001800035003A003B003C003D003E003F0040008F
:10019000410042004300440045004C002B00000099
:1001A0000000000000000000000000000000AC00A3
:1001B000AB00AA00A900AE0039000000000000005A
:1001C000000000000000000000000000000000002F
:1001D00000002800E1000000000000000000000016
:1001E0000000000000000000000000004B0049007B
:1001F000E000E300E200000000000000000000005A
:100200000000E60001004A004E004D0016034600C3
:1002100072006500650062006900720064003600CB
:100220003000000020034B006E006F0062006C0085
:1002300065007300730065004F0062006C00690088
:100240006700650000000403090409023B00020185
:1002500000A0FA09040000010301010009211101B5
:1002600000012240000705810308000A090401007B
:100270000103000000092111010001227B00070594
:10028000820320000A1201000200000008ADAD60E8
:10029000FB01000102000105010902A1018502091B
:1002A00001A1000509190129081500250195087506
:1002B0000181020501093009311581257F950275FB
:1002C00008810609381581257F9501750881060585
:1002D0000C0A38021581257F950175088106C0C07A
:1002E00005010980A101850319012AB7001501261E
:1002F000B700950175108100C0050C0901A10185A9
:100300000419012AA002150126A002950175108189
:1003100000C005010906A101050719E029E715003C
:100320002501950875018102950175088101050770
:10033000190029FF150026FF0095067508810005A4
:10034000081901290595057501910295017503911B
:1003500001C011241FBECFEFDAE0DEBFCDBF04B66F
:1003600003FE27C080916F0290917002A0917102EC
:10037000B09172028730904BA740B04BD1F41092ED
:100380006F0210927002109271021092720214BEEB
:1003900084B7877F84BF0FB6F894A89580916000DA
:1003A000886180936000109260000FBEE0E0F8E387
:1003B000099511E0A0E0B1E0ECE5FFE302C0059093
:1003C0000D92AE38B107D9F722E0AEE8B1E001C036
:1003D0001D92AF36B207E1F70E94EE110C94AC1FEC
:1003E0000C94000081E0089581E008950C94F401DC
:1003F00008950C94F8011F93CF93DF9300D000D0A1
:100400001F92CDB7DEB749835A836B833091900139
:1004100089819A81311114C0662359F0222349F051
:100420000E942108182F682F89819A810E94CA078B
:1004300003C00E94F507182F69817A81812F04C0BB
:100440000E94210869817A810F900F900F900F9080
:100450000F90DF91CF911F910C94590FFC01262F23
:10046000408151816281738184810C94FB0181E020
:100470000895CF93DF93EC0160E00E942E02BE014D
:10048000DF91CF910C94F9010E9462100E94C20288
:100490000C949F100C949B1080E00C94C302089560
:1004A0000C944F020E946B060E9450022FEF84E3CF
:1004B0009CE0215080409040E1F700C000000C9487
:1004C0003F180F931F93CF93DF938C0161E00E943D
:1004D0002E02EC01B8010E94F6018823F1F1B80167
:1004E000CE010E9464168823C1F1B801CE010E949A
:1004F0008E14882391F1B801CE010E94C015882383
:1005000061F1F8018281882309F1CB358DE5D807A7
:10051000C1F050F4C115FCE5DF0781F0CF3DDC45AB
:10052000A9F40E944B0D19C0CC35EDE5DE0761F052
:10053000CD35DD4559F40E948E0C08C00E94520250
:100540000CC00E94970C02C00E949A0CC801DF9157
:10055000CF911F910F910C94F20180E0DF91CF9128
:100560001F910F9108950C944F020E94C0160E9493
:10057000C3020C94B30208950C94BB0281E0089569
:100580000C94BE020895CF93C82F0E94BC028C2FFA
:100590000E94C002CF910895CF93DF93CDB7DEB70D
:1005A0002B970FB6F894DEBF0FBECDBF4F83588791
:1005B00069877A878B8761110E94E70B9E012F5F05
:1005C0003F4F86E0F90111928A95E9F785E0FE0137
:1005D0003796D90101900D928A95E1F789819A8128
:1005E0004C815D81452B31F09F3F31F491E08F3F8D
:1005F00019F403C091E001C090E090FF09C0498167
:100600005A816B817C818D819E810E94080B05C07F
:10061000C9010E9437028111F2CF2B960FB6F894D0
:10062000DEBF0FBECDBFDF91CF910895FC01808169
:1006300091810E9463080895CF93882309F450C0E4
:10064000C82F8CEF8C0F813AD0F46C2F809102016F
:10065000909103010E941D17882349F06C2F80910F
:100660000201909103010E9455170E940C0C6C2FFF
:1006700080910201909103010E9453170CC080E207
:100680008C0F883058F4C77081E001C0880FCA957C
:10069000EAF70E94CA0BCF910C940C0CEBE5EC0F1F
:1006A000E33040F4F0E0E95BFE4F808190E0CF91D1
:1006B0000C94E516E8E5EC0FE73150F4F0E0EE0FAE
:1006C000FF1FE75EFE4F80819181CF910C94FB1656
:1006D000CD3E30F08C2F0E947D12CF910C944F13A1
:1006E000CF910895882389F19CEF980F913A40F4B7
:1006F000682F80910201909103010E9455170DC04F
:1007000090E2980F983058F4877091E001C0990FEB
:100710008A95EAF7892F0E94D00B0C940C0C9BE56C
:10072000980F933020F480E090E00C94E51698E563
:10073000980F973120F480E090E00C94FB168D3EEA
:1007400020F00E94D8120C944F1308951F93CF935A
:10075000DF93182FEB010E941C03209741F08FE9D3
:100760009FE00197F1F700C000002197F6CF812F9D
:10077000DF91CF911F910C947203893319F060E0DF
:1007800070E002C060E570E00C94A603882321F0BD
:100790000E94CA0B0C940C0C0895882321F00E942F
:1007A000D00B0C940C0C0895CF92DF92EF92FF9235
:1007B0000F931F93CF93DF937C01D62FC72FFC019C
:1007C0001281058102950F700E94C00B8823B9F039
:1007D0001123A9F08C2F807F803421F080E28D0FCF
:1007E000883068F08091490282FD09C082E00E9451
:1007F0005C0C0E94C00B91E0D82ED92601C0D12CF0
:10080000CC2EC2948FE0C8228C2D90E08C309105C4
:1008100008F0CFC1FC01EA5AFF4F0C94431F8C2F04
:10082000807FCF70882311F0C295C07F112399F08B
:10083000CC2309F4AAC180E28D0F883010F0D111C9
:1008400004C08C2F0E94CA0B03C08C2F0E94DA0BAD
:100850000E940C0C9AC18D2F0E947203CC2309F4C4
:10086000A8C180E28D0F883038F1DD2329F18C2F6B
:100870000E94E00B24C08C2F807FCF70803211F05B
:10088000C295C07FDD2319F0D130A1F13DC0809128
:10089000490282FF17C0112349F0CC2329F08C2F85
:1008A0000E94CA0B0E940C0C80E070C180E00E9484
:1008B0007203CC2309F47DC18C2F0E94D00B0E94BF
:1008C0000C0C77C1112371F0002341F0013031F499
:1008D0000E94ED0B8C2B0E94F50B6BC10E94ED0B5F
:1008E0008C2B1DC0002319F0013009F462C10E9455
:1008F000020C25C0112321F0063008F05AC10EC0A9
:10090000053008F056C11BC0112361F0002331F0FF
:10091000F701858180FF39C18F7085838C2F0E94FC
:10092000C60347C1002359F0D93309F03FC1FFEF97
:1009300007EE13E0F15000401040E1F735C18C2F75
:100940000E94CD0336C18C2F86958695837019F051
:10095000813061F02EC1112321F08D2F9C2F9370D7
:1009600002C080E090E00E94E5162BC1112321F027
:100970008D2F9C2F937002C080E090E00E94FB16A8
:1009800020C18D2F112319F00E947D1202C00E94F8
:10099000D8120E944F1315C18C2F837009F047C0E5
:1009A00011110BC12D2F229526952770220F220F92
:1009B0006D2F6F70862F90E0A0E0B0E0022E04C093
:1009C000880F991FAA1FBB1F0A94D2F7D4FF10C02B
:1009D0004FE050E060E070E004C0440F551F661F18
:1009E000771F2A95D2F7409550956095709503C072
:1009F00040E050E0BA01C695C695C3708A019B01DC
:100A0000082B192B2A2B3B2BC901B801C23049F006
:100A100058F4C13019F00E94E006CFC00E94CE0603
:100A2000CCC00E94F206C9C00E94CC06C6C01123E9
:100A300019F08C2F817001C08695882309F4BDC000
:100A40002D2F229526952770220F220F6D2F6F7064
:100A5000862F90E0A0E0B0E0022E04C0880F991F1E
:100A6000AA1FBB1F0A94D2F7D4FF10C04FE050E07A
:100A700060E070E004C0440F551F661F771F2A9581
:100A8000D2F7409550956095709503C040E050E0D6
:100A9000BA01C695C695C3708A019B01082B192B14
:100AA0002A2B3B2BC901B801C23049F058F4C130A0
:100AB00019F00E94A50781C00E9493077EC00E9482
:100AC000B7077BC00E94060778C0CF70112339F0AA
:100AD0008C2F0E942C078D2F0E94C6036EC08D2F75
:100AE0000E94CD038C2F0E944D0767C0D23F21F199
:100AF00028F4D03F41F0D13FC1F043C0D33F19F1BA
:100B0000D43F79F03EC0112341F0053008F051C0C8
:100B10008C2F8F710E9472074CC0063008F049C0BC
:100B2000F7CF8091490282FF18C0112339F08C2F32
:100B30008F710E942C073DC01123C9F38C2F8F7138
:100B40000E944D0736C0112329F08C2F8F710E940F
:100B500017072FC00E9412072CC0112349F0CF7134
:100B60008C2F0E942C0763E08C2F0E94410C21C027
:100B700081E00E945C0C0230E0F082E00E945C0C9C
:100B800018C0112331F0002391F28D2F0E941C0315
:100B900010C0002399F2D93349F41FEF27EE33E058
:100BA000115020403040E1F700C000008D2F0E941E
:100BB000720388EF8C0D843020F40E94C0160E94CE
:100BC000C302DD20C9F00E94BC0B80FD15C0F701F7
:100BD00012820E94B60B0E942C07C7010E941D06BC
:100BE0000E94B60BDF91CF911F910F91FF90EF9074
:100BF000DF90CF900C944D07DF91CF911F910F9113
:100C0000FF90EF90DF90CF9008950F931F93CF93B5
:100C1000DF93EC01688179818A810E946E088C01E2
:100C20000E94C9070E94BA06B801CE010E94D403EF
:100C3000DF91CF911F910F910895CF93DF93EC0136
:100C4000988189812B813C81232B31F08F3F31F4B6
:100C500081E09F3F19F403C081E001C080E080FD86
:100C60001DC0CE010E946102811110C00E94C00B04
:100C70008823A1F08A81882389F08091490282FD2E
:100C80000DC082E0DF91CF910C945C0CCE010E94EC
:100C90000506CE01DF91CF910C943902DF91CF91FF
:100CA000089580E090E00E94E51680E090E00E94C8
:100CB000FB160E94E70B0E94EA0B0E940C0C0E949C
:100CC00080140C944F1380910201909103010E94B3
:100CD00057170C9451060E94D70B0C946306E92F0A
:100CE000E295EF704E2F50E0FA013297EE30F105A9
:100CF000B0F4EE59FF4F0C94431F803F91F018F46D
:100D0000883E68F40EC0843F51F40BC0883E48F022
:100D1000813F29F406C093FB882780F9089580E07D
:100D2000089581E00895FC01808191810E9463080B
:100D30000E946F060895CF93DF9300D000D01F92DA
:100D4000CDB7DEB70F900F900F900F900F90DF91FF
:100D5000CF910895CF93DF9300D000D000D0CDB7CE
:100D6000DEB726960FB6F894DEBF0FBECDBFDF917B
:100D7000CF910895089508950C94BB060C94BC0679
:100D80000E94BE066093C2017093C3018093C401A8
:100D90009093C5010C9451060C94C0060F931F93B9
:100DA0000091C2011091C3012091C4013091C5018D
:100DB000602B712B822B932B1F910F910C94C006EB
:100DC0000F931F930091C2011091C3012091C401A0
:100DD0003091C50160237123822393231F910F91CA
:100DE0000C94C0060F931F930091C2011091C30190
:100DF0002091C4013091C501602771278227932774
:100E00001F910F910C94C0060C94BB060E9404071E
:100E10006093BE017093BF018093C0019093C101A4
:100E20000C94510660E070E0CB010C9406070F9320
:100E30001F9341E050E060E070E08A019B0104C034
:100E4000000F111F221F331F8A95D2F7C901B80165
:100E50001F910F910C9406070F931F9341E050E0F0
:100E600060E070E004C0440F551F661F771F8A952D
:100E7000D2F78091BE019091BF01A091C001B091C5
:100E8000C1018A019B01082B192B2A2B3B2BC9017D
:100E9000B8011F910F910C9406070F931F9341E027
:100EA00050E060E070E004C0440F551F661F771FDC
:100EB0008A95D2F740955095609570958091BE01C6
:100EC0009091BF01A091C001B091C1018A019B0125
:100ED000082319232A233B23C901B8011F910F912D
:100EE0000C9406070F931F9341E050E060E070E020
:100EF00004C0440F551F661F771F8A95D2F7809153
:100F0000BE019091BF01A091C001B091C1018A01C1
:100F10009B01082719272A273B27C901B8011F91E0
:100F20000F910C9406070F931F930091BE0110912F
:100F3000BF012091C0013091C101602B712B822B28
:100F4000932B1F910F910C9406070F931F93009101
:100F5000BE011091BF012091C0013091C1016023F9
:100F60007123822393231F910F910C9406070F93F3
:100F70001F930091BE011091BF012091C0013091DB
:100F8000C10160277127822793271F910F910C942D
:100F9000060708952EE0929F800D1124E82FE69514
:100FA000E695E695877051E001C0550F8A95EAF7FE
:100FB00085E0E89FF0011124EF56FE4F20E030E07D
:100FC00070E04081CB01022E02C0969587950A946D
:100FD000E2F78170819584278523842781932F5F91
:100FE0003F4F2530310569F708952EE0929F800D1F
:100FF0001124682F669566956695982F977085E001
:10100000689FB001112440E050E080E0FB01E40F54
:10101000F51FEF56FE4F208130E0092E02C03695B5
:1010200027950A94E2F721703327042E01C0220F7E
:101030000A94EAF7822B4F5F5F4F4530510531F735
:101040000895BF92CF92DF92EF92FF920F931F937A
:10105000CF93DF938C01C090BE01D090BF01E09090
:10106000C001F090C1018091C2019091C301A09193
:10107000C401B091C501C82AD92AEA2AFB2ACFE1C6
:10108000D0E0D701C6010C2E04C0B695A795979560
:1010900087950A94D2F780FD04C0219790F7B12C70
:1010A00007C0BC2EB8018C2F0E946C0F0197A9F3CA
:1010B0008B2DDF91CF911F910F91FF90EF90DF90DB
:1010C000CF90BF900895CF93DF93EC010E94210849
:1010D000BE010E946C0FDF91CF9108951F93CF93B3
:1010E000DF93EB0190919001992321F0CB010E94B5
:1010F000630813C0882349F0CB010E942108182FF0
:10110000682FCE010E94CA0704C0CB010E94F507D8
:10111000182FBE01812F0E946C0FDF91CF911F917C
:1011200008951F93CF93DF93C091C60116E080917D
:10113000C701C81799F0D0E01C9FF0011D9FF00D6A
:101140001124E853FE4F4081518162817381848173
:1011500095810E94AA062196C770E9CFDF91CF91B1
:101160001F9108954091F8015091F9016091FA01A1
:101170007091FB018091FC019091FD010C94AA06F5
:10118000EF92FF920F931F93CF93DF938091FD0116
:1011900082958F7009F065C08091FA01882309F467
:1011A00060C08091C601F090C7011091F8010091D4
:1011B000F9016091FB017091FC0191E01F3F09F082
:1011C00090E0C0910001D0910101292F96E0E92E15
:1011D0008F1509F446C06115710521F00F3F21F00C
:1011E00030E003C031E001C0322F90E030FD36C066
:1011F000E89EF001E99EF00D1124DF01A853BE4FD7
:1012000011963C911197301329C03C91311326C09F
:1012100012963C911297311121C013964D915C9119
:101220001497461B570B4C175D07C0F48091FD01C6
:101230008F7080618093FD01E353FE4F80818F703A
:101240008061808388EF91E00E941D06DF91CF913D
:101250001F910F91FF90EF900C9491080196877069
:10126000B7CFDF91CF911F910F91FF90EF9008952D
:101270009F92AF92BF92CF92DF92EF92FF920F9325
:101280001F93CF93DF93CDB7DEB761970FB6F89476
:10129000DEBF0FBECDBF8C0185E0F801DE011D96DB
:1012A00001900D928A95E1F7D8011296EC909091F9
:1012B000F801E091F9012091FB013091FC01211529
:1012C000310531F0EF3F31F481E09F3F19F403C065
:1012D00081E001C080E0B82FB1709B2E80FD47C136
:1012E000D8014C9111965C9111971396AD90BC90DA
:1012F000149788EFC82E81E0D82EF090FA01B5013E
:10130000621B730B2091000130910101FF2009F451
:10131000D9C08091FD016217730708F095C0282F8E
:10132000207F09F052C05E1313C0491311C0FE2C78
:10133000E1100EC08F7080618093FD010E94B208A1
:10134000C6010E941D068091FD01F80185834DC1F3
:10135000AB2831F05F3F31F481E04F3F19F403C017
:1013600081E001C080E080FD03C081E08E2502C0E5
:1013700080E090E0F82FF170FF2E80FF1CC080917C
:10138000C6012091C70136E0821709F40BC190E035
:10139000389FF001399FF00D1124E853FE4F618111
:1013A000561306C06081461303C06281E61203C073
:1013B00001968770E9CFFE2CEE2009F416C18091CA
:1013C000FD0181608093FD0154C05E1306C0491386
:1013D00004C0E11002C0F80199C0C8010E94930640
:1013E000882361F1EE2051F12091FD01822F829539
:1013F0008F7090E0029774F08091F8019091F9015C
:1014000098878F831986BB86AA862C87CE0107967C
:101410000E941D0686E0F801A8EFB1E001900D9250
:101420008A95E1F70E94C0080E94B2080AC05E17C0
:1014300011F1C8010E94930681112CC0C8010E94BD
:101440001D06FF24F394D1C0282F207F81F77A2D29
:10145000B98AA88A6E2D89890E949B0688EF91E03F
:101460000E941D0686E0D6011D928A95E9F70E942A
:10147000B208F12CBAC04913DCCFE110DACFF80181
:101480008583C8010E941D0686E0D6011D928A95BB
:10149000E9F7ABC0EE2091F22091FD01822F8295F9
:1014A0008F7090E002970CF4B5CF8091F801909185
:1014B000F9019A8389831B82BD82AC822E83CE017F
:1014C0000196A6CF6217730708F044C0FE2CEE20E9
:1014D00009F4B4CF5E1330C049132EC02091FD0132
:1014E00020FD21C0822F82958F70482F50E041153A
:1014F0005105C9F0F80125834F30510541F08F5F48
:10150000982F9295907F822F8F70892B8583C801A9
:101510000E941D0686E0F801A8EFB1E001900D924F
:101520008A95E1F73CC086E0F801A8EFB1E00190B0
:101530000D928A95E1F759C0C8010E949306811166
:1015400069CF8091FD0181608093FD01C8010E94F7
:101550001D064BC07A2DB98AA88A6E2D89890E94F2
:101560009B0686E0D6011D928A95E9F718C0EE2009
:1015700009F464CFC8010E949306F82E882309F469
:101580005DCF86E0F801A8EFB1E001900D928A9559
:10159000E1F788EF91E00E9416030E94C0080E94C4
:1015A000B20823C04D875E878D859E850E946308A3
:1015B000292F22952F70223028F49F7039F0811145
:1015C00005C00BC0243028F49F7049F4805E883039
:1015D00020F0C8010E941D069F2CF92C06C0D801DE
:1015E00015969C91907F91F7F8CF8F2D61960FB64D
:1015F000F894DEBF0FBECDBFDF91CF911F910F9149
:10160000FF90EF90DF90CF90BF90AF909F900895A4
:101610001F93CF93DF93CDB7DEB72C970FB6F89417
:10162000DEBF0FBECDBF4F83588769877A878B8710
:101630009C87CE0107960E9438098823D1F09F81AC
:1016400088852A853B85232B31F08F3F31F481E05B
:101650009F3F19F403C081E001C080E080FD47C0D6
:101660004F81588569857A858B859C850E94AA065D
:101670003EC086E0FE013796DE01119601900D9284
:101680008A95E1F7FF81E8856A857B85611571059B
:1016900031F0EF3F31F481E0FF3F19F403C081E006
:1016A00001C080E080FD23C02091C70130E0C90166
:1016B0000196877099274091C60150E084179507DD
:1016C000F1F1F983EA837D836C8396E0929FD001E8
:1016D000939FB00D1124A853BE4FFE013196019087
:1016E0000D929A95E1F78093C7010E94910816E048
:1016F0008091C6019091C701891771F1189FC001AF
:10170000112488539E4F0E943809882329F1E091C3
:10171000C6011E9FF0011124E853FE4F4081518104
:1017200062817381848195810E94AA068091C6019D
:1017300090E00196877099278093C601D9CF0E94C7
:101740006B061092C7011092C601E8EFF1E086E047
:10175000DF011D928A95E9F72C960FB6F894DEBF4B
:101760000FBECDBFDF91CF911F9108958091FE01F3
:1017700085958595859508958091FE0187700895DA
:101780009091FE01977081E009F480E008958091C6
:101790000A02089590910A02892B80930A02089503
:1017A000809590910A02892380930A0208951092ED
:1017B0000A02089590910902892B809309020895E5
:1017C00080959091090289238093090208951092CF
:1017D000090208951092080208958091FF0108956A
:1017E00008950C94F00B0C94F10B9091490292FD2A
:1017F00008C09091FF01981721F08093FF010C948D
:10180000F30B08958091FF01882329F01092FF01C6
:1018100080E00C94F30B0895E0910201F091030134
:1018200080910A028083E0910201F091030190818E
:1018300080910902892B8083E0910201F0910301DC
:10184000908180910802892B80838091FF018823F9
:1018500081F0E0910201F09103019081892B808356
:1018600080910201909103010E94111781110E9441
:10187000020C80910201909103010C94CC160C94FF
:10188000F00B9091490292FD10C098E0899F900161
:101890001124262B2093FE010E942C078091FE012B
:1018A0008595859585950C943F0C0C942C0710928A
:1018B000FE0180E00C943F0C2091FE018095822374
:1018C0008093FE01982F977099F430E0482F082EEE
:1018D000000C550B2417350759F09091490292FDE1
:1018E00007C08595859585950E944D070C94570CEA
:1018F00008959091490292FB222720F9281769F058
:1019000080FB92F99093490280914802909149029C
:101910000E94C70C82E00C945C0C089580914902EF
:1019200082FB882780F991E089270C94790C81E06B
:101930000C94790C80E00C94790C6FEF7FEF80E0D1
:1019400090E00C94961F80E090E00E94721F21E0CE
:10195000893E9E4F09F020E0822F089582E090E0BA
:101960000C946A1F83E090E00C946A1FCF9384E08C
:1019700090E00E946A1FC82F82E290E00E946A1FD6
:101980002C2F30E0A901582BCA01CF910895CF9395
:10199000C92F682F84E090E00E94781F6C2F82E2AC
:1019A00090E0CF910C94781FAB01BC018FE090E0E8
:1019B0000C948A1FAB01BC0183E190E00C948A1F58
:1019C00060E070E0CB010C94DA0C60E070E0CB01D9
:1019D0000E94D40C0C94E00C69EE7EEF80E090E065
:1019E0000E94961F60E082E090E00E94781F60E015
:1019F00083E090E00E94781F1092C2011092C30110
:101A00001092C4011092C50160E084E090E00E9451
:101A1000781F60E082E290E00E94781F60E085E03D
:101A200090E00E94781F60E086E090E00E94781FBE
:101A30006FEF87E090E00E94781F40E050E0BA012D
:101A400088E090E00E948A1F60E08DE090E00E94B4
:101A5000781F40E050E0BA0188E190E00E948A1FC0
:101A600060E087E190E00E94781F40E050E0BA011A
:101A70008CE190E00E948A1F60E070E080E290E0DC
:101A80000E94961F40E050E0BA0188E190E00E9479
:101A90008A1F0C94E50C0C94EC0C682F8EE090E0FF
:101AA0000C94781F0E94FE1760931A0270931B0219
:101AB00080931C0290931D0260931602709317028C
:101AC0008093180290931902089585B7806885BFA6
:101AD00085B7806885BF089581E008950C946C0DEA
:101AE00008950C94700D0C94700D0C94730D0C945F
:101AF000700D0C94770D0C94700D0E94650D88E4A8
:101B000090E10E94B6160E947B0D0C94790D0E9404
:101B1000710D0C94700D0E94E9170E9447110C94EE
:101B2000750D6F927F928F929F92AF92BF92CF92DC
:101B3000DF92EF92FF920F931F93CF93DF93CDB776
:101B4000DEB72A970FB6F894DEBF0FBECDBF0E9456
:101B50005C1181110E94520D3CE0832E32E0932EE5
:101B600000E010E0C02E802F0E9486105C01F4017E
:101B7000619071904F016826792661147104B1F467
:101B80000F5F1F4F0530110569F78FEF89838A8337
:101B90001B820E94F2178160782F9D838C8349817C
:101BA0005A816B818D810E94CC023AC080911E02C5
:101BB00081FD0E948F10D12CEE24E394F12CC301FF
:101BC0008E219F21892B29F10E946E0D8823A9F077
:101BD000DE82CF82AE20BF2081E0AB2809F480E016
:101BE00088870E94F2178160782F9A8789874E81B3
:101BF0005F8168858A850E94CC02000F111FF80161
:101C0000E45FFD4F80819181E826F926F182E08230
:101C100007C0D394EE0CFF1CFEE0DF12D0CFB0CF94
:101C20000E946D130E94C01690910B028917D1F08B
:101C30000E94C01680930B022A960FB6F894DEBF5E
:101C40000FBECDBFDF91CF911F910F91FF90EF900D
:101C5000DF90CF90BF90AF909F908F907F906F90CC
:101C60000C94C3022A960FB6F894DEBF0FBECDBF08
:101C7000DF91CF911F910F91FF90EF90DF90CF9068
:101C8000BF90AF909F908F907F906F900895CF936B
:101C9000DF930E94710FEC01811521E5920708F096
:101CA00045C0811530E5930708F094C0883E910542
:101CB00028F5803E910508F0F8C0883A910570F447
:101CC000853A910508F07CC08130910509F475C012
:101CD00008F4E8C0049708F0E8C0E4C08F3B910521
:101CE00008F0E0C0C85AD0E0CC0FDD1FC65BDE4F65
:101CF0000990D881C02DCE019464D8C0811540E2EE
:101D0000940758F4811551E0950708F0CEC08D3E38
:101D1000910508F4C7C09065C9C0C11580E4D80713
:101D200008F4C0C0DF70CE01906AC0C0811525E5FF
:101D30009207A8F4811534E5930708F095C0811542
:101D400043E5940708F07BC0811552E5950708F03C
:101D500061C0D82FCC27CE01816F906AA7C0C11572
:101D600089E5D807A0F4C11528E5D20708F082C09C
:101D7000C11536E5D30708F095C08C2F0E940510D9
:101D80008F7190E0D82FCC27CE0190628FC0C11503
:101D90004AE5D40708F474C0CE01905681159042EC
:101DA00008F080C08D2F8F710E940510DD27D06252
:101DB0008F71AE01582BCA0179C081E090E076C0E6
:101DC000C55AD0E0C858DE4F8881C82FD0E0CE0178
:101DD00090646CC074E0969587957A95E1F7282F0A
:101DE00023703C2F337081E090E002C0880F991F70
:101DF0003A95E2F79C68AC01522B9A019C2F9F7098
:101E00009695969550E2959FE0011124C9018C2B7F
:101E10009D2B4CC08370992721E030E002C0220F37
:101E2000331F8A95E2F79C2F9695969580E2989FAE
:101E3000E0011124C22BD32BCE019C6837C08370E4
:101E4000992721E030E002C0220F331F8A95E2F784
:101E50009C2F9695969540E2949FE0011124C22B09
:101E6000D32BCE019A6822C0D82FCC27CE01846F05
:101E7000906A1CC0DC2FCC27CE01806F906A16C000
:101E80008C2F8F700E94051094E0D695C7959A9577
:101E9000E1F7CF70D0E0DC2FCC27D0699E01282B52
:101EA000C90104C080E090E001C0CE01DF91CF9174
:101EB000089526E4829FC0011124FC012EE0729F48
:101EC000E00DF11D1124E60FF11DEE0FFF1FEC5088
:101ED000FF4F8591949108950E94590F0E94470EDB
:101EE00008958238910569F1B0F48133910509F4C0
:101EF0006DC048F48932910509F463C08A329105B6
:101F000009F469C008958533910509F455C08933F2
:101F10009105B9F00895833E910569F138F4803E4A
:101F20009105B1F0823E910509F10895863E910533
:101F3000A9F1873E9105B9F1843E910509F064C08D
:101F400023C02091480220FD4FC021FD4DC00895BF
:101F50008091480280FD44C08091490280FF44C0C6
:101F60008091480284FD42C083EE4DC080914802BA
:101F700082FF38C0F5CF8091480282FD33C0809146
:101F8000490280FD31C0ECCF8091490281FF32C00F
:101F90008091480284FD2AC087EE35C080914802B6
:101FA00083FF26C0F5CF8091480283FD21C0809138
:101FB000490281FD1FC0ECCF8091480285FD1CC005
:101FC0001DC08091480285FD19C016C0809148024D
:101FD00086FD16C017C08091480286FD13C010C050
:101FE00089E311C082EE0FC080EE0DC080E00BC00F
:101FF00086EE09C084EE07C089E205C085E303C010
:102000008AE201C081E390E008959091480292FF36
:102010000DC0282F2871283019F4877F846006C0EE
:10202000282F2471243011F48B7F886093FF0DC01A
:10203000282F2871283119F4877E846106C0282F43
:102040002471243111F48B7E88612091490220FF94
:102050000DC0382F3871383019F4877F816006C081
:10206000382F3171313011F48E7F886021FF0DC01F
:10207000282F2871283119F4877E816106C0282F06
:102080002171213111F48E7E886194FD877E08953F
:1020900080E008950C949D0C0E945C118FE39CE9F4
:1020A0000197F1F700C000000E945C1180E00E94DF
:1020B000861080FF04C00E944A100C943F180895B7
:1020C0000C944C100E94A30C811102C00E944B0D75
:1020D0000E94AE0C80931E020E94B60C909349029F
:1020E000809348020E9460100E94B20C682F70E03A
:1020F00080E090E00E94CC066091BE017091BF012B
:102100008091C0019091C1010C940407E82FF0E088
:10211000EE0FFF1FEC5AFD4F8081918108950895C5
:1021200080EA8A95F1F7089500C008950C94901004
:1021300008950C9498100C9499100C9498100C9489
:102140009D10F894E82FE295EF70F0E031A1282F70
:102150002F7081E090E001C0880F2A95EAF7982F50
:102160009095932391A392A1892B82A378940895AB
:102170000F931F93CF93DF93C9E8D1E089918F3FED
:1021800011F00E94A11081E0CE38D807B9F7CBE753
:10219000D1E009E811E089918F3F11F00E94A11070
:1021A0000C171D07C1F7DF91CF911F910F91089573
:1021B000BF92CF92DF92EF92FF920F931F93CF9334
:1021C000DF938C01C62FD0E0CE0187579E4F6C0164
:1021D000FC0190819F3F09F450C0B62EF894E92F7E
:1021E000E295EF70F0E081A19F7021E030E001C046
:1021F000220F9A95EAF7822B81A382A120952823AA
:1022000022A378940E949410EBE7F1E049E851E0B2
:1022100021E030E0E12CF12C61916F3F89F0A62F95
:10222000A295AF70B0E090968C9190E06F7002C074
:10223000959587956A95E2F780FD02C0C90102C0B5
:1022400080E090E0E82AF92A220F331F4E175F073B
:1022500019F7F60180818F3F11F00E94A11061E013
:10226000E114F10409F460E08B2D0E949610CC0F6C
:10227000DD1FC00FD11FF982E882DF91CF911F913E
:102280000F91FF90EF90DF90CF90BF9008950E9444
:10229000B8108AE0E4E5F2E0DF01982F1D929A95EC
:1022A000E9F7EAE4F2E0DF011D928A95E9F785E0BB
:1022B0000E94A7110C944402FF920F931F93CF9397
:1022C000DF93CDB7DEB72A970FB6F894DEBF0FBE07
:1022D000CDBF8E010F5F1F4F8AE0F80111928A95E2
:1022E000E9F7F12C6F2DC8010E94D810F394F5E0A6
:1022F000FF12F8CF4AE050E0B8018AE492E00E9471
:102300005D1FFF24F394009709F4F12C892B41F011
:102310008AE0F801AAE4B2E001900D928A95E1F713
:102320002F2D45E064E572E08AE492E00E94A81156
:102330000E944A028F2D2A960FB6F894DEBF0FBE78
:10234000CDBFDF91CF911F910F91FF900895089518
:10235000FF920F931F93CF93DF93F82E092F162F21
:10236000D72FC42F222349F081E0809321020E94BD
:10237000F2179093200280931F02809121028823FC
:10238000D9F080911F02909120020E940A180597AF
:1023900098F0EF2DF02FA12FBD2F80E090E04C2F73
:1023A00050E08417950734F4219131912D933D939A
:1023B0000196F7CF10922102DF91CF911F910F91DB
:1023C000FF9008950E94F5190E948B0D0C94011A3C
:1023D0000E94051A0E94910D0C941F1A0E947817F2
:1023E0000E94DC190E947D0D0E94E2110E94E811FA
:1023F0000E94870DFBCF8091280280FF0BC0609167
:10240000090185E0689FB001112475956795759560
:1024100067952BC081FF09C06091090185E0689F25
:10242000B00111247595679520C082FF07C06091A7
:10243000090185E0689FB001112417C0909127021F
:102440009923D1F060910801961788F7209109012E
:1024500085E0289F90011124929FA001939F500D29
:10246000112470E0CA010E942F1F6038710540F4EA
:102470006115710519F406C065E070E0862F0895B6
:102480008FE7089581E008958091280280FF08C0B9
:102490006091050170E0759567957595679521C008
:1024A00081FF06C06091050170E07595679519C0C0
:1024B00082FF04C06091050170E010C09091260277
:1024C000992399F0609104019617A0F78091050176
:1024D000899FC001112470E00E942F1F6038710590
:1024E00040F46115710519F406C061E070E0862FB3
:1024F00008958FE7089581E008958D3E21F40E94AC
:10250000FB11819504C08E3E29F40E94FB1180933B
:102510002C0208958F3E21F40E94FB11819504C086
:10252000803F29F40E94FB1180932B020895893F7C
:1025300019F40E94441205C08A3F31F40E944412EB
:10254000819580932D0208958B3F21F40E944412BF
:10255000819504C08C3F29F40E94441280932E027E
:1025600008959FE0980F983078F421E030E0A901B9
:1025700002C0440F551F9A95E2F7CA0190912A02B2
:10258000892B80932A0208958D3F21F4809128029F
:1025900081600BC08E3F21F480912802826005C0CB
:1025A0008F3F29F480912802846080932802089547
:1025B0008D3E39F490912C0297FF35C010922C0279
:1025C00059C08E3E29F490912C021916BCF32BC0F1
:1025D00090912B028F3E29F497FF25C010922B0279
:1025E00049C0803F19F41916CCF31DC090912D02FB
:1025F000893F29F41916BCF410922D023BC08A3F82
:1026000019F497FF10C0F8CF8B3F39F490912E0248
:1026100097FF09C010922E022DC08C3F21F490919B
:102620002E021916BCF39FE0980F983080F421E039
:1026300030E0A90102C0440F551F9A95E2F7CA0184
:10264000809590912A02892380932A0213C08D3F9E
:1026500021F4809128028E7F0BC08E3F21F480915F
:1026600028028D7F05C08F3F29F4809128028B7F3F
:102670008093280280912B02811106C080912C0248
:10268000811102C01092270280912D02811106C093
:1026900080912E02811102C01092260208950E949C
:1026A000F21720912B02211104C020912C02222329
:1026B00021F0909325028093240220912D02211174
:1026C00004C020912E02222321F0909323028093B4
:1026D000220289E292E00C94D716EF92FF920F93B8
:1026E0001F93CF93DF9300D000D000D0CDB7DEB7DB
:1026F00086E0E9E2F2E0DE01119601900D928A9502
:10270000E1F7E0902B02F0902C0200912D02109145
:102710002E0210922B0210922C0210922D02109277
:102720002E02E11003C0FF2009F45DC08091240255
:10273000909125020E940A18AC01909127029923DA
:1027400039F020910A0130E02417350758F04BC0CA
:1027500020910B018AE0289F90011124241735074E
:1027600018F041C09F3F19F09F5F90932702EE2021
:1027700061F00E94FB111E1414F09FEF01C091E064
:10278000989F902D112490932B02FF2061F00E94BE
:10279000FB111F1414F09FEF01C091E0989F902D42
:1027A000112490932C0230912B023323E1F02091DD
:1027B0002C022223C1F045EB3403C00111249923DC
:1027C00019F090932B0203C081E080932B0235EB2C
:1027D0002303C0011124992319F090932C0203C004
:1027E00081E080932C02011103C0112309F45DC024
:1027F00080912202909123020E940A18AC019091CC
:102800002602992339F02091060130E0241735077C
:1028100058F04BC0209107018AE0289F90011124B5
:102820002417350718F041C09F3F19F09F5F909320
:102830002602002361F00E944412101614F09FEF4C
:1028400001C091E0989F902D112490932D021123A7
:1028500061F00E944412111614F09FEF01C091E044
:10286000989F902D112490932E0230912D023323A6
:10287000E1F020912E022223C1F045EB3403C00188
:102880001124992319F090932D0203C081E08093C5
:102890002D0235EB2303C0011124992319F09093E5
:1028A0002E0203C081E080932E0280912B028111C1
:1028B0000BC080912C02811107C080912D028111E3
:1028C00003C080912E0281110E944F13EB82FC8283
:1028D0000D831E8386E0FE013196A9E2B2E00190ED
:1028E0000D928A95E1F726960FB6F894DEBF0FBEDB
:1028F000CDBFDF91CF911F910F91FF90EF90089581
:10290000E9E2F2E086E0DF011D928A95E9F7109294
:10291000270210922602109228020895CF93DF9387
:10292000EC01FB018281882309F426C1C430FDE556
:10293000DF0760F4CB3F9CE5D90768F49E01225085
:102940003C452431310508F018C105C0C236EDE51B
:10295000DE0709F012C10E94B60C909349028093E1
:102960004802C031FCE5DF0709F4CAC008F041C0E5
:10297000C8309CE5D90709F4A4C0F0F4C430FCE5E4
:10298000DF0709F48CC068F4C2309CE5D90709F46C
:1029900082C0C330DC4509F0E5C080914802826006
:1029A000DFC0C630FCE5DF0709F483C008F085C04E
:1029B000809148028860D4C0CC309CE5D90709F4E6
:1029C00090C068F4CA30FCE5DF0709F47EC008F067
:1029D00084C00E946B06809148028068C1C0CE30DE
:1029E0009CE5D90709F481C008F086C080914802AF
:1029F00094C0CD3FFCE5DF0709F47BC038F5C43156
:102A00009CE5D90709F49AC058F4C231FCE5DF0708
:102A100009F47AC008F07EC0809148028F7BA0C084
:102A2000CB3F9CE5D907F1F108F03FC0C531DC454B
:102A300009F098C08091480282FB222720F991E09A
:102A4000922790FB82F990FB83F98AC0C1308DE513
:102A5000D80709F467C050F480914902CF3FECE5F4
:102A6000DE07C1F108F05BC08D7F65C0C3308DE526
:102A7000D80709F471C008F46DC0C236DD4509F00D
:102A800071C08091480284FB222720F991E09227AF
:102A900090FB84F965C080914802816061C080919B
:102AA000480216C08091490216C080914902826096
:102AB00042C080914802806153C080914802806288
:102AC0004FC08091480280644BC08091480288606A
:102AD000846046C0826081602EC0809148028E7FF3
:102AE0003FC0809148028D7F3BC080914802877F24
:102AF00037C08091490214C0809148028F7E30C057
:102B0000809148028F7D2CC00E946B068091480204
:102B10008F7726C080914802877F8B7F21C08D7F71
:102B20008E7F09C080914902982F909591708E7F79
:102B3000892B90FB81F98093490214C00E946B0697
:102B40008091480287FB222720F991E0922790FB91
:102B500087F906C081E001C080E00E944D0D02C0EF
:102B60008093480280914802909149020E94C70CCC
:102B70000E946B0680E001C081E0DF91CF91089553
:102B8000CF93DF9386319C4541F5EB010E94C70B43
:102B9000982F8A812091020130910301882379F0D6
:102BA0009A7A81E009F480E080932F02911102C0AB
:102BB00069E201C065E3C9010E9453170AC0809110
:102BC0002F02811102C069E201C065E3C9010E94C0
:102BD00055170E940C0C80E001C081E0DF91CF917D
:102BE00008950F931F93CF93DF93C42FD22FFC012F
:102BF00082818823C9F0409332020E94F217909399
:102C000031028093300280E28C0F883008F057C088
:102C1000C77081E001C0880FCA95EAF7DF91CF91B4
:102C20001F910F910C94C60380913202481330C05B
:102C300080913002909131020E940A18883C9105DF
:102C400038F510E21D0FCD17B9F080E28C0F8830F7
:102C500040F4C77081E001C0880FCA95EAF70E946E
:102C6000CD03183028F581E09D2F977001C0880FA3
:102C70009A95EAF70E94C603802F0E94BD03183080
:102C8000F0F4D77081E001C0880FDA95EAF70AC046
:102C900080E28C0F883098F4C77081E001C0880F03
:102CA000CA95EAF7DF91CF911F910F910C94CD0354
:102CB000802FDF91CF911F910F910C94BD03DF9175
:102CC000CF911F910F9108950F939C01CB01243F49
:102CD0004CE5340731F188F4293DFCE53F07D9F094
:102CE0002A3D4CE5340779F1283D3C45A9F506E23B
:102CF00021EE41EE68ED7CE52BC0263FFCE53F0769
:102D0000E1F0A8F0273F3C4539F507E225EE46EE15
:102D100067EF7CE51DC007E225EE45EE69ED7CE539
:102D200017C006E221EE40EE64EF7CE511C007E239
:102D300025EE44EE65EF7CE50BC006E221EE42EEA7
:102D400066EF7CE505C008E221E045EE6AED7CE532
:102D50000E94F11580E008C0FC018281882319F0EF
:102D60001092320201C081E00F91089590938F017B
:102D700080938E01089590933802809337020895CE
:102D8000E0913702F0913802309721F00190F08104
:102D9000E02D099480E00895E0913702F091380227
:102DA000309721F00280F381E02D09940895E0919D
:102DB0003702F0913802309739F022E0DC012C9391
:102DC0000480F581E02D0994089520913502309119
:102DD00036022817390771F0909336028093350236
:102DE000E0913702F0913802309721F00680F781A8
:102DF000E02D099408952091330230913402281770
:102E0000390771F09093340280933302E0913702D6
:102E1000F0913802309721F00084F185E02D09947B
:102E20000895FC01329697E080E0915029F02191BD
:102E30002223D9F38F5FF9CF0895662349F0FC016F
:102E4000329608962191621729F0E817F907D1F711
:102E500080E0089581E008959C01FC0132969FEF87
:102E600080E04191461789F09F3F19F4411101C05C
:102E7000982F8F5F8630A9F79F3F39F0F901E90F4E
:102E8000F11D97FDFA956283089508959C012A5FCC
:102E90003F4FFC014281461301C012820196821706
:102EA0009307B9F708950C942C170C9446170296C3
:102EB00026E0FC0111922A95E9F7089508950C94F3
:102EC0005E1783E0809339020C945F17811102C072
:102ED00081E001C082E0809339020C945F170C946A
:102EE000661781E0809339020C945F170C94711778
:102EF000089580916602843031F10E944C02109254
:102F00003A0220E488E190E00FB6F894A895809307
:102F100060000FBE2093600083B7817F846083BF11
:102F200083B7816083BF7894889583B78E7F83BF92
:102F30000FB6F894A8958091600088618093600036
:102F4000109260000FBE089508950C94A417CF93BB
:102F50000E94A5170E945C110E94A417C0E08C2F4C
:102F60000E948610892B29F4CF5FC530C1F780E01D
:102F700001C081E0CF9108950E946B060C94B502C8
:102F80001F920F920FB60F9211248F939F93AF93BE
:102F9000BF9380913A02811113C080915E0290919B
:102FA0005F02A0916002B09161024196A11DB11D26
:102FB00080935E0290935F02A0936002B0936102DF
:102FC000BF91AF919F918F910F900FBE0F901F9067
:102FD000189582E084BD93E095BD9AEF97BD8093EC
:102FE0006E0008952FB7F89480915E0290915F0271
:102FF000A0916002B09161022FBF08952FB7F8949D
:1030000060915E0270915F02809160029091610216
:103010002FBF08959C014FB7F89480915E02909164
:103020005F02A0916002B09161024FBF821B930BBF
:10303000089578941F920F920FB60F9211248F93D8
:103040009F93AF93BF9380915E0290915F02A09196
:103050006002B09161020196A11DB11D80935E02D4
:1030600090935F02A0936002B0936102BF91AF9111
:103070009F918F910F900FBE0F901F90189581E038
:103080008093E00080E28093D8001092C9008FE125
:103090009EE40197F1F700C0000087E090EBDC01AF
:1030A00080936F0290937002A0937102B0937202AA
:1030B0009CE088E10FB6F894A895809360000FBE5D
:1030C00090936000FFCF809146020895089522E01A
:1030D0002093E9002FEF3091E800215035FD06C024
:1030E00035ED3A95F1F700002111F5CF2091E80078
:1030F00025FF0BC040E050E066E070E00E94911AAE
:103100008091E8008E778093E8000895CF93DF9355
:1031100021E02093E9002FEF3091E800215035FDA8
:1031200006C035ED3A95F1F700002111F5CF209159
:10313000E80025FF14C0EC0140E050E068E070E0DA
:103140000E94911A8091E8008E778093E80088E0D1
:10315000FE01AEE3B2E001900D928A95E1F7DF91B6
:10316000CF91089580933B0270933D0260933C029F
:1031700080916602843001F582E08093E9008FEF50
:103180009091E800815095FD06C095ED9A95F1F774
:1031900000008111F5CF8091E80085FF0DC040E06F
:1031A00050E063E070E08BE392E00E94911A80911E
:1031B000E8008E778093E8000895BC0184E00C94C9
:1031C000B218BC0183E00C94B218809165028111A1
:1031D00009C00E94221C0E947F1C8091E200846032
:1031E0008093E20008951092650208950C9476177A
:1031F0006091620281E0611101C080E00C9461176E
:103200009091660281E0943009F080E06091620262
:103210000C94661742E061EC81E00E949B1B42E245
:1032200061EC82E00E949B1B9091660281E09430E9
:1032300009F080E0609162020C946F17809168023F
:10324000833009F461C030F4813071F0823009F4C8
:103250009AC008958A3009F486C08B3009F46CC096
:10326000893009F0A8C020C080916702813A09F036
:10327000A2C08091E800877F8093E80080916B0274
:1032800090916C02892B21F468E08EE392E003C0F8
:1032900060E080E090E070E00E94DC1A8091E8003D
:1032A0008B778093E800089580916702813209F05E
:1032B00082C080916B0290916C02029708F07BC0F3
:1032C0008091E800877F8093E8008091E80082FD8C
:1032D00005C0809166028111F8CF6DC02091F30086
:1032E0008091F20090E0922B029731F48091F100EE
:1032F000813011F0863021F48091F10080934602F4
:103300008091E8008B7753C080916702813A09F081
:1033100052C080916B0290916C02892B09F04BC0D6
:103320008091E800877F8093E8008091E80080FF2B
:10333000FCCF8091180136C0809167028132D9F5A7
:1033400080916B0290916C02892BA9F58091E80025
:10335000877F8093E8000E94D01B80916902809350
:1033600018010C946B0680916702813221F58091DF
:10337000E800877F8093E8000E94D01B80916A025A
:1033800080934702089580916702813AA1F4809169
:10339000E800877F8093E8008091E80080FFFCCF01
:1033A000809147028093F1008091E8008E778093AE
:1033B000E8000C94D01B089584B7877F84BF0FB6B4
:1033C000F894A895809160008861809360001092C5
:1033D00060000FBE90E080E80FB6F8948093610023
:1033E000909361000FBE0C9471170E94221C0E94E2
:1033F0007F1CE2EEF0E080818460808378940C94FE
:10340000141F8CE091E00C94BB168091660285300D
:10341000A9F480916602853079F40E947917809131
:1034200064028823B1F30E94A717882391F30E94B6
:103430007B1A0E946B06EDCF0C94BC17089508957B
:103440000C94221A292F332723303105C9F060F458
:103450002130310581F02230310509F044C08BE381
:1034600090E02AE432E043C021323105E1F022321B
:10347000310549F138C082E190E025E832E037C0FB
:1034800099278130910549F028F0029761F5ECE029
:10349000F2E005C0E6E4F2E002C0E4E2F2E084918A
:1034A00090E09F0124C06115710541F06130710504
:1034B000D1F489E090E025E732E019C089E090E09E
:1034C0002CE532E014C06115710541F061307105E1
:1034D00051F48BE790E027E932E009C080E490E006
:1034E00022E133E004C080E090E020E030E0FA0127
:1034F00031832083089580E189BD82E189BD09B4CB
:1035000000FEFDCF8091D8008F7D8093D800809100
:10351000E00082608093E0008091E00081FDFCCFBC
:103520000895CF92DF92EF92FF920F931F93CF9364
:10353000DF93EC018B017A010E94EF1B811133C0F4
:10354000E114F10439F0F70180819181081B190B16
:10355000C80FD91FC12CD12C0115110519F180916B
:10356000E80085FD16C08091E8008E778093E80022
:10357000E114F10449F0F70180819181C80ED91E50
:10358000D182C08285E00FC00E94EF1B882321F307
:103590000AC089918093F10001501109FFEFCF1A01
:1035A000DF0ADACF80E0DF91CF911F910F91FF907A
:1035B000EF90DF90CF90089520916D0230916E02D0
:1035C0002617370748F06115710539F42091E80096
:1035D0002E772093E80001C0B901FC0120E06115BD
:1035E000710579F1809166028823F1F18530F1F15E
:1035F0008091E80083FD3CC08091E80082FD2EC0F0
:103600008091E80080FFEBCF2091F3008091F200E1
:1036100090E0922B6115710551F08830910538F4D6
:1036200021912093F100615071090196F3CF21E0BF
:10363000089709F020E08091E8008E778093E800F9
:10364000CECF2111CFCF0AC080916602882361F0CE
:10365000853061F08091E80083FD0AC08091E80028
:1036600082FFF2CF80E0089582E0089583E008951C
:1036700081E0089520916D0230916E022617370780
:1036800048F06115710539F42091E8002E772093F8
:10369000E80001C0B901FC0120E06115710591F15C
:1036A00080916602882309F440C0853009F43FC048
:1036B0008091E80083FD3DC08091E80082FD2FC02D
:1036C0008091E80080FFE9CF2091F3008091F20023
:1036D00090E0922B6115710559F08830910540F406
:1036E00024912093F1003196615071090196F2CF37
:1036F00021E0089709F020E08091E8008E77809320
:10370000E800CBCF2111CCCF0AC08091660288237C
:1037100061F0853061F08091E80083FD0AC08091FE
:10372000E80082FFF2CF80E0089582E0089583E010
:10373000089581E00895982F973068F59093E900F7
:10374000981739F07091EC002091ED005091F00045
:1037500003C0242F762F50E021FD02C09F5FECCFE5
:103760003091EB003E7F3093EB003091ED003D7FD8
:103770003093ED003091EB0031603093EB007093AB
:10378000EC002093ED005093F0002091EE0027FD17
:10379000E5CF80E008958F708093E90081E008957F
:1037A0008091670287FF11C08091E80082FD05C00B
:1037B000809166028111F8CF11C08091E8008B776B
:1037C0000BC080916602882349F08091E80080FF59
:1037D000F8CF8091E8008E778093E80008952091DB
:1037E000E4003091E50095E64091EC00842F817073
:1037F00040FF23C08091E80080FD1DC080916602DB
:10380000882399F0853099F08091EB0085FD11C0F7
:103810004091E4005091E5002417350729F39150B9
:1038200011F09A01E1CF84E0089582E0089583E0E9
:10383000089581E0089580E008954091E80042FFF6
:10384000DDCF08950E94901C0E94981CE0EEF0E0ED
:10385000808181608083E8EDF0E080818F778083D4
:1038600019BCA7EDB0E08C918E7F8C9380818F7E08
:1038700080831092650208950F931F93CF93DF9377
:103880000E94901C0E94981CC8EDD0E088818F7720
:10389000888388818068888388818F7D888319BC2C
:1038A00010926602109262021092640210926302F9
:1038B00000EE10E0F80180818B7F80838881816039
:1038C000888342E060E080E00E949B1BE1EEF0E034
:1038D00080818E7F8083E2EEF0E080818160808352
:1038E000808188608083F80180818E7F80838881D9
:1038F00080618883DF91CF911F910F910895E8ED4A
:10390000F0E080818F7E8083E7EDF0E08081816050
:10391000808384E082BF81E0809365020C943C1C2C
:10392000E8EDF0E080818E7F80831092E2000895C0
:103930001092DA001092E10008951F920F920FB6D4
:103940000F9211242F933F934F935F936F937F9325
:103950008F939F93AF93BF93EF93FF938091E10079
:1039600082FF0BC08091E20082FF07C08091E100DE
:103970008B7F8093E1000E94131F8091DA0080FF0B
:103980001FC08091D80080FF1BC08091DA008E7F1D
:103990008093DA008091D90080FF0DC080E189BD5D
:1039A00082E189BD09B400FEFDCF81E0809366020B
:1039B0000E94E51805C019BC109266020E94F31817
:1039C0008091E10080FF19C08091E20080FF15C066
:1039D0008091E2008E7F8093E2008091E20080611E
:1039E0008093E2008091D80080628093D80019BC57
:1039F00085E0809366020E94F8188091E10084FFC0
:103A000030C08091E20084FF2CC080E189BD82E15A
:103A100089BD09B400FEFDCF8091D8008F7D8093D1
:103A2000D8008091E1008F7E8093E1008091E200D8
:103A30008F7E8093E2008091E20081608093E200BB
:103A400080916202882311F084E007C08091E30036
:103A500087FD02C081E001C083E0809366020E947E
:103A600000198091E10083FF29C08091E20083FF6B
:103A700025C08091E100877F8093E10082E0809300
:103A80006602109262028091E1008E7F8093E100D5
:103A90008091E2008E7F8093E2008091E20080615D
:103AA0008093E20042E060E080E00E949B1B8091F6
:103AB000F00088608093F0000E94F618FF91EF916B
:103AC000BF91AF919F918F917F916F915F914F9136
:103AD0003F912F910F900FBE0F901F9018951F923E
:103AE0000F920FB60F9211242F933F934F935F9332
:103AF0006F937F938F939F93AF93BF93CF93DF93F6
:103B0000EF93FF93C091E900CF708091EC00D82F24
:103B1000D17080FDD0E81092E9008091F000877F9D
:103B20008093F00078940E94B31D1092E900809178
:103B3000F00088608093F000CD2BCF70C093E90037
:103B4000FF91EF91DF91CF91BF91AF919F918F91B5
:103B50007F916F915F914F913F912F910F900FBE89
:103B60000F901F9018951F93CF93DF93CDB7DEB7BB
:103B7000AA970FB6F894DEBF0FBECDBFE7E6F2E01E
:103B80008091F100819322E0EF36F207C9F70E949D
:103B90001E198091E80083FF2EC1809167029091E9
:103BA0006802492F50E04A30510508F024C1FA015B
:103BB000E059FF4F0C94431F803821F0823809F000
:103BC0001AC108C08091630290916402992389F020
:103BD00082600FC080916B028F70873008F00BC13C
:103BE0008093E9008091EB0085FB882780F9109293
:103BF000E9009091E800977F9093E8008093F100AE
:103C00001092F100D1C0282F2D7F09F0F4C0882335
:103C100019F0823061F0EFC080916902813009F0C3
:103C2000EAC0933009F080E0809364022EC0809156
:103C3000690281112AC080916B028F702FEF280FCB
:103C4000263008F0D8C08093E9002091EB0020FFD7
:103C50001CC0933021F48091EB00806214C09091DD
:103C6000EB0090619093EB0021E030E0A90102C0ED
:103C7000440F551F8A95E2F74093EA001092EA003C
:103C80008091EB0088608093EB001092E9008091B6
:103C9000E800877F8093E8000E94D01BACC08111B0
:103CA000AAC0109169021F778091E3008078812B70
:103CB0008093E3008091E800877F8093E8000E9472
:103CC000D01B8091E80080FFFCCF8091E3008068EA
:103CD0008093E300111102C082E001C083E0809371
:103CE000660289C08058823008F085C080916902E0
:103CF00090916A028C3D53E0950779F583E08A83C1
:103D00008AE289834FB7F894DE01139620E03EE003
:103D100051E2E32FF0E050935700E49120FF03C0FD
:103D2000E295EF703F5FEF708E2F90E0EA3010F079
:103D3000C79601C0C0968D939D932F5F243149F79C
:103D40004FBF8091E800877F8093E8006AE270E0CF
:103D5000CE0101960E94DC1A16C060916B02709130
:103D60006C02AE014F5F5F4F0E94201ABC01892B8D
:103D700009F441C09091E800977F9093E800898111
:103D80009A810E943A1B8091E8008B778093E8002B
:103D900032C0803881F58091E800877F8093E80009
:103DA000809162028093F1008091E8008E7772CF5B
:103DB000811121C08091690290916A02992702972E
:103DC000D4F48091E800877F8093E80080916902B5
:103DD000809362020E94D01B80916202811106C012
:103DE0008091E30087FD02C081E001C084E0809300
:103DF00066020E940A198091E80083FF0AC0809140
:103E0000E800877F8093E8008091EB0080628093D8
:103E1000EB00AA960FB6F894DEBF0FBECDBFDF91C0
:103E2000CF911F9108950895CF93809166028823C2
:103E3000A1F0C091E900CF709091EC00892F8170C2
:103E400090FD80E8C82B1092E9008091E80083FD86
:103E50000E94B31DCF70C093E900CF91089597FBE6
:103E6000072E16F4009407D077FD09D00E94491F51
:103E700007FC05D03EF4909581959F4F089570956D
:103E800061957F4F0895EE0FFF1F0590F491E02D8F
:103E90000994AA1BBB1B51E107C0AA1FBB1FA61791
:103EA000B70710F0A61BB70B881F991F5A95A9F7E3
:103EB00080959095BC01CD010895FB01DC0104C003
:103EC0008D910190801921F441505040C8F7881B12
:103ED000990B0895F999FECF92BD81BDF89A992763
:103EE00080B50895A8E1B0E042E050E00C949E1F38
:103EF000262FF999FECF92BD81BDF89A019700B4A3
:103F0000021639F01FBA20BD0FB6F894FA9AF99A42
:103F10000FBE08950396272F0E94791F0E94781FD5
:103F2000252F0E94791F242F0C94791F0196272F8B
:103F30000E94791F0C94781FDC01CB01FC01F999D8
:103F4000FECF06C0F2BDE1BDF89A319600B40D92E5
:0C3F500041505040B8F70895F894FFCF9E
:103F5C00C80000022808641E140A321E6318861852
:103F6C006718E118DD18661801E200E900EA00B5EF
:103F7C0000B600B700CD008301CC008A01920194F9
:103F8C00012102230224022502260227022A02B35F
:103F9C0000B4006F007000818283E200E900EA0047
:103FAC00B500B600B700CD008301CC008A019201A8
:103FBC0094012102230224022502260227022A024E
:103FCC00B300B4006F007000818283F767663635EA
:0E3FDC00349796949091929395F5F4F1F0F647
:00000001FF
